{
  "_format": "hh-sol-artifact-1",
  "contractName": "Builder",
  "sourceName": "contracts/builder.sol",
  "abi": [
    {
      "inputs": [
        {
          "internalType": "address",
          "name": "_addressPool",
          "type": "address"
        }
      ],
      "stateMutability": "nonpayable",
      "type": "constructor"
    },
    {
      "inputs": [
        {
          "internalType": "string",
          "name": "_name",
          "type": "string"
        },
        {
          "internalType": "string",
          "name": "_gstno",
          "type": "string"
        },
        {
          "internalType": "string",
          "name": "_brochure_url",
          "type": "string"
        }
      ],
      "name": "addBuilder",
      "outputs": [],
      "stateMutability": "nonpayable",
      "type": "function"
    },
    {
      "inputs": [
        {
          "internalType": "address",
          "name": "",
          "type": "address"
        }
      ],
      "name": "addressmp",
      "outputs": [
        {
          "internalType": "uint256",
          "name": "",
          "type": "uint256"
        }
      ],
      "stateMutability": "view",
      "type": "function"
    },
    {
      "inputs": [],
      "name": "builder_cnt",
      "outputs": [
        {
          "internalType": "uint256",
          "name": "",
          "type": "uint256"
        }
      ],
      "stateMutability": "view",
      "type": "function"
    },
    {
      "inputs": [
        {
          "internalType": "uint256",
          "name": "",
          "type": "uint256"
        }
      ],
      "name": "buildermp",
      "outputs": [
        {
          "internalType": "string",
          "name": "name",
          "type": "string"
        },
        {
          "internalType": "string",
          "name": "gstno",
          "type": "string"
        },
        {
          "internalType": "string",
          "name": "brochure_url",
          "type": "string"
        }
      ],
      "stateMutability": "view",
      "type": "function"
    },
    {
      "inputs": [
        {
          "components": [
            {
              "internalType": "string",
              "name": "start_date",
              "type": "string"
            },
            {
              "internalType": "string",
              "name": "end_date",
              "type": "string"
            },
            {
              "internalType": "uint256",
              "name": "valuation",
              "type": "uint256"
            },
            {
              "internalType": "string",
              "name": "prospectus_url",
              "type": "string"
            },
            {
              "internalType": "string[]",
              "name": "lat_log",
              "type": "string[]"
            },
            {
              "internalType": "address",
              "name": "corporation",
              "type": "address"
            }
          ],
          "internalType": "struct eStateProject.ProjectDetail",
          "name": "pd",
          "type": "tuple"
        }
      ],
      "name": "createProject",
      "outputs": [],
      "stateMutability": "nonpayable",
      "type": "function"
    },
    {
      "inputs": [],
      "name": "getAllProjects",
      "outputs": [
        {
          "internalType": "address[]",
          "name": "",
          "type": "address[]"
        }
      ],
      "stateMutability": "view",
      "type": "function"
    },
    {
      "inputs": [
        {
          "internalType": "address",
          "name": "_address",
          "type": "address"
        }
      ],
      "name": "getAllProjectsByAddress",
      "outputs": [
        {
          "internalType": "address[]",
          "name": "",
          "type": "address[]"
        }
      ],
      "stateMutability": "view",
      "type": "function"
    },
    {
      "inputs": [],
      "name": "total_project",
      "outputs": [
        {
          "internalType": "uint256",
          "name": "",
          "type": "uint256"
        }
      ],
      "stateMutability": "view",
      "type": "function"
    }
  ],
  "bytecode": "0x60806040526001600055600060045534801561001a57600080fd5b506040516127cd3803806127cd8339810160408190526100399161005e565b600380546001600160a01b0319166001600160a01b039290921691909117905561008e565b60006020828403121561007057600080fd5b81516001600160a01b038116811461008757600080fd5b9392505050565b6127308061009d6000396000f3fe60806040523480156200001157600080fd5b5060043610620000935760003560e01c8063728307d01162000062578063728307d0146200011c57806380d038291462000126578063a1556b821462000130578063db1e476f146200014757600080fd5b806314efe3a71462000098578063188315af14620000c7578063322ca57e14620000e0578063520b488414620000f9575b600080fd5b620000af620000a93660046200071b565b6200016f565b604051620000be919062000740565b60405180910390f35b620000de620000d836600462000927565b620001f4565b005b620000ea60045481565b604051908152602001620000be565b620000ea6200010a3660046200071b565b60026020526000908152604090205481565b620000ea60005481565b620000af6200030c565b620000de6200014136600462000a2e565b6200043c565b6200015e6200015836600462000ac0565b6200051e565b604051620000be9392919062000b22565b6001600160a01b03811660009081526002602090815260408083205483526001825291829020600301805483518184028101840190945280845260609392830182828015620001e857602002820191906000526020600020905b81546001600160a01b03168152600190910190602001808311620001c9575b50505050509050919050565b336000908152600260205260408120549003620002585760405162461bcd60e51b815260206004820152601160248201527f6275696c646572206e6f7420657869737400000000000000000000000000000060448201526064015b60405180910390fd5b6003546040516000916001600160a01b031690339084906200027a90620006f0565b620002889392919062000b6b565b604051809103906000f080158015620002a5573d6000803e3d6000fd5b50336000908152600260209081526040808320548352600180835290832060030180549182018155835291200180547fffffffffffffffffffffffff0000000000000000000000000000000000000000166001600160a01b03929092169190911790555050565b6060600060045467ffffffffffffffff8111156200032e576200032e6200078f565b60405190808252806020026020018201604052801562000358578160200160208202803683370190505b509050600060015b600054811015620004345760005b6000828152600160205260409020600301548110156200041e576000828152600160205260409020600301805482908110620003ae57620003ae62000c72565b9060005260206000200160009054906101000a90046001600160a01b0316848481518110620003e157620003e162000c72565b6001600160a01b039092166020928302919091019091015282620004058162000c9e565b9350508080620004159062000c9e565b9150506200036e565b50806200042b8162000c9e565b91505062000360565b509092915050565b33600090815260026020526040902054156200049b5760405162461bcd60e51b815260206004820152601560248201527f6275696c64657220616c7265616479206578697374000000000000000000000060448201526064016200024f565b6000805460019082908180620004b18362000c9e565b9091555081526020810191909152604001600020905080620004d4858262000d49565b5060018101620004e5848262000d49565b5060028101620004f6838262000d49565b50600160005462000508919062000e16565b3360009081526002602052604090205550505050565b6001602052600090815260409020805481906200053b9062000cba565b80601f0160208091040260200160405190810160405280929190818152602001828054620005699062000cba565b8015620005ba5780601f106200058e57610100808354040283529160200191620005ba565b820191906000526020600020905b8154815290600101906020018083116200059c57829003601f168201915b505050505090806001018054620005d19062000cba565b80601f0160208091040260200160405190810160405280929190818152602001828054620005ff9062000cba565b8015620006505780601f10620006245761010080835404028352916020019162000650565b820191906000526020600020905b8154815290600101906020018083116200063257829003601f168201915b505050505090806002018054620006679062000cba565b80601f0160208091040260200160405190810160405280929190818152602001828054620006959062000cba565b8015620006e65780601f10620006ba57610100808354040283529160200191620006e6565b820191906000526020600020905b815481529060010190602001808311620006c857829003601f168201915b5050505050905083565b6118c88062000e3383390190565b80356001600160a01b03811681146200071657600080fd5b919050565b6000602082840312156200072e57600080fd5b6200073982620006fe565b9392505050565b6020808252825182820181905260009190848201906040850190845b81811015620007835783516001600160a01b0316835292840192918401916001016200075c565b50909695505050505050565b634e487b7160e01b600052604160045260246000fd5b60405160c0810167ffffffffffffffff81118282101715620007cb57620007cb6200078f565b60405290565b604051601f8201601f1916810167ffffffffffffffff81118282101715620007fd57620007fd6200078f565b604052919050565b600082601f8301126200081757600080fd5b813567ffffffffffffffff8111156200083457620008346200078f565b62000849601f8201601f1916602001620007d1565b8181528460208386010111156200085f57600080fd5b816020850160208301376000918101602001919091529392505050565b600082601f8301126200088e57600080fd5b8135602067ffffffffffffffff80831115620008ae57620008ae6200078f565b8260051b620008bf838201620007d1565b9384528581018301938381019088861115620008da57600080fd5b84880192505b858310156200091b57823584811115620008fa5760008081fd5b6200090a8a87838c010162000805565b8352509184019190840190620008e0565b98975050505050505050565b6000602082840312156200093a57600080fd5b813567ffffffffffffffff808211156200095357600080fd5b9083019060c082860312156200096857600080fd5b62000972620007a5565b8235828111156200098257600080fd5b620009908782860162000805565b825250602083013582811115620009a657600080fd5b620009b48782860162000805565b60208301525060408301356040820152606083013582811115620009d757600080fd5b620009e58782860162000805565b606083015250608083013582811115620009fe57600080fd5b62000a0c878286016200087c565b60808301525062000a2060a08401620006fe565b60a082015295945050505050565b60008060006060848603121562000a4457600080fd5b833567ffffffffffffffff8082111562000a5d57600080fd5b62000a6b8783880162000805565b9450602086013591508082111562000a8257600080fd5b62000a908783880162000805565b9350604086013591508082111562000aa757600080fd5b5062000ab68682870162000805565b9150509250925092565b60006020828403121562000ad357600080fd5b5035919050565b6000815180845260005b8181101562000b025760208185018101518683018201520162000ae4565b506000602082860101526020601f19601f83011685010191505092915050565b60608152600062000b37606083018662000ada565b828103602084015262000b4b818662000ada565b9050828103604084015262000b61818562000ada565b9695505050505050565b60006001600160a01b038086168352602081861681850152606060408501528451915060c0606085015262000ba561012085018362000ada565b915080850151605f198086850301608087015262000bc4848362000ada565b9350604087015160a087015260608701519150808685030160c087015262000bed848362000ada565b608088015187820390920160e08801528151808252909450908301915082840190600581901b8501840160005b8281101562000c4c57601f1987830301845262000c3982865162000ada565b9486019493860193915060010162000c1a565b5060a08901516001600160a01b0381166101008a015295509a9950505050505050505050565b634e487b7160e01b600052603260045260246000fd5b634e487b7160e01b600052601160045260246000fd5b60006001820162000cb35762000cb362000c88565b5060010190565b600181811c9082168062000ccf57607f821691505b60208210810362000cf057634e487b7160e01b600052602260045260246000fd5b50919050565b601f82111562000d4457600081815260208120601f850160051c8101602086101562000d1f5750805b601f850160051c820191505b8181101562000d405782815560010162000d2b565b5050505b505050565b815167ffffffffffffffff81111562000d665762000d666200078f565b62000d7e8162000d77845462000cba565b8462000cf6565b602080601f83116001811462000db6576000841562000d9d5750858301515b600019600386901b1c1916600185901b17855562000d40565b600085815260208120601f198616915b8281101562000de75788860151825594840194600190910190840162000dc6565b508582101562000e065787850151600019600388901b60f8161c191681555b5050505050600190811b01905550565b8181038181111562000e2c5762000e2c62000c88565b9291505056fe6080604052600180556001600d553480156200001a57600080fd5b50604051620018c8380380620018c88339810160408190526200003d91620004ec565b336001600160a01b0316836001600160a01b03166383373b366040518163ffffffff1660e01b8152600401602060405180830381865afa15801562000086573d6000803e3d6000fd5b505050506040513d601f19601f82011682018060405250810190620000ac91906200061a565b6001600160a01b031614620000f85760405162461bcd60e51b815260206004820152600e60248201526d1b9bdd08185d5d1a1bdc9a5e995960921b604482015260640160405180910390fd5b816000806101000a8154816001600160a01b0302191690836001600160a01b03160217905550826001600160a01b031663740b1a7b6040518163ffffffff1660e01b8152600401602060405180830381865afa1580156200015d573d6000803e3d6000fd5b505050506040513d601f19601f820116820180604052508101906200018391906200061a565b600680546001600160a01b03929092166001600160a01b0319928316811790915560058054909216179055805181906007908190620001c39082620006ce565b5060208201516001820190620001da9082620006ce565b506040820151600282015560608201516003820190620001fb9082620006ce565b5060808201518051620002199160048401916020909101906200024d565b5060a09190910151600590910180546001600160a01b0319166001600160a01b03909216919091179055506200079a915050565b82805482825590600052602060002090810192821562000298579160200282015b82811115620002985782518290620002879082620006ce565b50916020019190600101906200026e565b50620002a6929150620002aa565b5090565b80821115620002a6576000620002c18282620002cb565b50600101620002aa565b508054620002d9906200063f565b6000825580601f10620002ea575050565b601f0160209004906000526020600020908101906200030a91906200030d565b50565b5b80821115620002a657600081556001016200030e565b80516001600160a01b03811681146200033c57600080fd5b919050565b634e487b7160e01b600052604160045260246000fd5b60405160c081016001600160401b03811182821017156200037c576200037c62000341565b60405290565b604051601f8201601f191681016001600160401b0381118282101715620003ad57620003ad62000341565b604052919050565b600082601f830112620003c757600080fd5b81516001600160401b03811115620003e357620003e362000341565b6020620003f9601f8301601f1916820162000382565b82815285828487010111156200040e57600080fd5b60005b838110156200042e57858101830151828201840152820162000411565b506000928101909101919091529392505050565b600082601f8301126200045457600080fd5b815160206001600160401b038083111562000473576200047362000341565b8260051b6200048483820162000382565b93845285810183019383810190888611156200049f57600080fd5b84880192505b85831015620004e057825184811115620004bf5760008081fd5b620004cf8a87838c0101620003b5565b8352509184019190840190620004a5565b98975050505050505050565b6000806000606084860312156200050257600080fd5b6200050d8462000324565b92506200051d6020850162000324565b60408501519092506001600160401b03808211156200053b57600080fd5b9085019060c082880312156200055057600080fd5b6200055a62000357565b8251828111156200056a57600080fd5b6200057889828601620003b5565b8252506020830151828111156200058e57600080fd5b6200059c89828601620003b5565b60208301525060408301516040820152606083015182811115620005bf57600080fd5b620005cd89828601620003b5565b606083015250608083015182811115620005e657600080fd5b620005f48982860162000442565b6080830152506200060860a0840162000324565b60a08201528093505050509250925092565b6000602082840312156200062d57600080fd5b620006388262000324565b9392505050565b600181811c908216806200065457607f821691505b6020821081036200067557634e487b7160e01b600052602260045260246000fd5b50919050565b601f821115620006c957600081815260208120601f850160051c81016020861015620006a45750805b601f850160051c820191505b81811015620006c557828155600101620006b0565b5050505b505050565b81516001600160401b03811115620006ea57620006ea62000341565b6200070281620006fb84546200063f565b846200067b565b602080601f8311600181146200073a5760008415620007215750858301515b600019600386901b1c1916600185901b178555620006c5565b600085815260208120601f198616915b828110156200076b578886015182559484019460019091019084016200074a565b50858210156200078a5787850151600019600388901b60f8161c191681555b5050505050600190811b01905550565b61111e80620007aa6000396000f3fe608060405234801561001057600080fd5b50600436106100d45760003560e01c80639c094a5411610081578063d7e84fbf1161005b578063d7e84fbf146101dc578063d9e8843f14610207578063fb51adfa1461021a57600080fd5b80639c094a5414610155578063a4f228851461016a578063ad448e271461018a57600080fd5b80633506ab8c116100b25780633506ab8c146101235780634946942114610144578063807e0b111461014c57600080fd5b80631731cc05146100d95780632037fcbf146100fb5780632afcf48014610110575b600080fd5b6100e161023a565b6040516100f2959493929190610eae565b60405180910390f35b61010e610109366004610f09565b6103fd565b005b61010e61011e366004610f09565b61067c565b610136610131366004610f3e565b610983565b6040519081526020016100f2565b61010e6109ad565b61013660015481565b61015d610b7e565b6040516100f29190610f68565b610136610178366004610fc0565b60036020526000908152604090205481565b6101bd610198366004610f09565b600260205260009081526040902080546001909101546001600160a01b039091169082565b604080516001600160a01b0390931683526020830191909152016100f2565b6000546101ef906001600160a01b031681565b6040516001600160a01b0390911681526020016100f2565b61010e610215366004610f09565b610c70565b610136610228366004610f09565b600e6020526000908152604090205481565b60078054819061024990610fe2565b80601f016020809104026020016040519081016040528092919081815260200182805461027590610fe2565b80156102c25780601f10610297576101008083540402835291602001916102c2565b820191906000526020600020905b8154815290600101906020018083116102a557829003601f168201915b5050505050908060010180546102d790610fe2565b80601f016020809104026020016040519081016040528092919081815260200182805461030390610fe2565b80156103505780601f1061032557610100808354040283529160200191610350565b820191906000526020600020905b81548152906001019060200180831161033357829003601f168201915b50505050509080600201549080600301805461036b90610fe2565b80601f016020809104026020016040519081016040528092919081815260200182805461039790610fe2565b80156103e45780601f106103b9576101008083540402835291602001916103e4565b820191906000526020600020905b8154815290600101906020018083116103c757829003601f168201915b505050600590930154919250506001600160a01b031685565b33600090815260036020908152604080832054835260029091529020600101548111156104715760405162461bcd60e51b815260206004820152601560248201527f66756e64656420616d6f756e7420746f6f206c6f77000000000000000000000060448201526064015b60405180910390fd5b600d546000908152600e60205260408120805483929061049290849061102c565b9091555050600d546000908152600460209081526040808320338452909152812080548392906104c390849061102c565b909155505033600090815260036020908152604080832054835260029091529020600101548190036105ce576002600060018054610501919061102c565b815260208082019290925260409081016000908120338252600384528282205482526002938490529181208254815473ffffffffffffffffffffffffffffffffffffffff19166001600160a01b0391909116178155600192830154908301558154909161056d9161102c565b815260208082019290925260409081016000908120805473ffffffffffffffffffffffffffffffffffffffff191681556001908101829055338252600390935290812081905581548291906105c390839061102c565b909155506106039050565b3360009081526003602090815260408083205483526002909152812060010180548392906105fd90849061102c565b90915550505b60065460405163a9059cbb60e01b8152306004820152602481018390526001600160a01b039091169063a9059cbb906044016020604051808303816000875af1158015610654573d6000803e3d6000fd5b505050506040513d601f19601f82011682018060405250810190610678919061103f565b5050565b600554604051636eb1769f60e11b8152336004820152306024820152829182916001600160a01b039091169063dd62ed3e90604401602060405180830381865afa1580156106ce573d6000803e3d6000fd5b505050506040513d601f19601f820116820180604052508101906106f29190611061565b10156107285760405162461bcd60e51b815260206004820152600560248201526422b93937b960d91b6044820152606401610468565b33600090815260036020526040812054900361087857600180546000916002918391826107548361107a565b9091555081526020810191909152604001600020805473ffffffffffffffffffffffffffffffffffffffff191633178155600180549192506107959161102c565b33600081815260036020526040908190209290925560065491516323b872dd60e01b81526004810191909152306024820152604481018590526001600160a01b03909116906323b872dd906064016020604051808303816000875af1158015610802573d6000803e3d6000fd5b505050506040513d601f19601f82011682018060405250810190610826919061103f565b5060018101839055600d546000908152600e60205260408120805485929061084f908490611093565b9091555050600d5460009081526004602090815260408083203384529091529020839055505050565b6006546040516323b872dd60e01b8152336004820152306024820152604481018490526001600160a01b03909116906323b872dd906064016020604051808303816000875af11580156108cf573d6000803e3d6000fd5b505050506040513d601f19601f820116820180604052508101906108f3919061103f565b50336000908152600360209081526040808320548352600290915281206001018054849290610923908490611093565b9091555050600d546000908152600e602052604081208054849290610949908490611093565b9091555050600d5460009081526004602090815260408083203384529091528120805484929061097a908490611093565b90915550505050565b60008181526004602090815260408083206001600160a01b03861684529091529020545b92915050565b600d54336000908152600f602052604090205410610a0d5760405162461bcd60e51b815260206004820152601460248201527f796f7520616c726561647920636c616d696e65640000000000000000000000006044820152606401610468565b336000908152600f60205260408120548190610a2a906001611093565b90505b600d54811015610ad7576000818152600e6020908152604080832054600483528184203385529092528220548291610a659190610e34565b9150915081610ab65760405162461bcd60e51b815260206004820152601760248201527f6469766973696f6e206f662072656e74206661696c65640000000000000000006044820152606401610468565b610ac08185611093565b935050508080610acf9061107a565b915050610a2d565b506001600d54610ae7919061102c565b336000818152600f60205260409081902092909255600654915163a9059cbb60e01b81526004810191909152602481018390526001600160a01b039091169063a9059cbb906044016020604051808303816000875af1158015610b4e573d6000803e3d6000fd5b505050506040513d601f19601f82011682018060405250810190610b72919061103f565b610b7b57600080fd5b50565b6060600060018054610b90919061102c565b67ffffffffffffffff811115610ba857610ba86110a6565b604051908082528060200260200182016040528015610bed57816020015b6040805180820190915260008082526020820152815260200190600190039081610bc65790505b50905060015b6001548111610c6a57600081815260026020908152604091829020825180840190935280546001600160a01b03168352600190810154918301919091528390610c3c908461102c565b81518110610c4c57610c4c6110bc565b60200260200101819052508080610c629061107a565b915050610bf3565b50919050565b600554604051636eb1769f60e11b8152336004820152306024820152829182916001600160a01b039091169063dd62ed3e90604401602060405180830381865afa158015610cc2573d6000803e3d6000fd5b505050506040513d601f19601f82011682018060405250810190610ce69190611061565b1015610d1c5760405162461bcd60e51b815260206004820152600560248201526422b93937b960d91b6044820152606401610468565b600c546001600160a01b03163314610d9c5760405162461bcd60e51b815260206004820152602660248201527f73686f756c642062652070616964206279206d616e6167696e6720636f72706f60448201527f726174696f6e00000000000000000000000000000000000000000000000000006064820152608401610468565b6001600d6000828254610daf9190611093565b90915550506006546040516323b872dd60e01b8152336004820152306024820152604481018490526001600160a01b03909116906323b872dd906064016020604051808303816000875af1158015610e0b573d6000803e3d6000fd5b505050506040513d601f19601f82011682018060405250810190610e2f919061103f565b505050565b60008082600003610e4a57506000905080610e61565b6001838581610e5b57610e5b6110d2565b04915091505b9250929050565b6000815180845260005b81811015610e8e57602081850181015186830182015201610e72565b506000602082860101526020601f19601f83011685010191505092915050565b60a081526000610ec160a0830188610e68565b8281036020840152610ed38188610e68565b90508560408401528281036060840152610eed8186610e68565b9150506001600160a01b03831660808301529695505050505050565b600060208284031215610f1b57600080fd5b5035919050565b80356001600160a01b0381168114610f3957600080fd5b919050565b60008060408385031215610f5157600080fd5b610f5a83610f22565b946020939093013593505050565b602080825282518282018190526000919060409081850190868401855b82811015610fb357815180516001600160a01b03168552860151868501529284019290850190600101610f85565b5091979650505050505050565b600060208284031215610fd257600080fd5b610fdb82610f22565b9392505050565b600181811c90821680610ff657607f821691505b602082108103610c6a57634e487b7160e01b600052602260045260246000fd5b634e487b7160e01b600052601160045260246000fd5b818103818111156109a7576109a7611016565b60006020828403121561105157600080fd5b81518015158114610fdb57600080fd5b60006020828403121561107357600080fd5b5051919050565b60006001820161108c5761108c611016565b5060010190565b808201808211156109a7576109a7611016565b634e487b7160e01b600052604160045260246000fd5b634e487b7160e01b600052603260045260246000fd5b634e487b7160e01b600052601260045260246000fdfea264697066735822122021944c067b1a99f6f86e6a8b5218b78c051cf58e59f504e9770433d0df17aef164736f6c63430008110033a26469706673582212203c075616d37f01280f202b3b048bc6a2900e6db780adc40edba2712c0c4cb0fd64736f6c63430008110033",
  "linkReferences": {},
  "deployedLinkReferences": {}
}