{
  "_format": "hh-sol-artifact-1",
  "contractName": "Builder",
  "sourceName": "contracts/builder.sol",
  "abi": [
    {
      "inputs": [
        {
          "internalType": "address",
          "name": "_addressPool",
          "type": "address"
        }
      ],
      "stateMutability": "nonpayable",
      "type": "constructor"
    },
    {
      "inputs": [
        {
          "internalType": "string",
          "name": "_name",
          "type": "string"
        },
        {
          "internalType": "string",
          "name": "_gstno",
          "type": "string"
        },
        {
          "internalType": "string",
          "name": "_brochure_url",
          "type": "string"
        }
      ],
      "name": "addBuilder",
      "outputs": [],
      "stateMutability": "nonpayable",
      "type": "function"
    },
    {
      "inputs": [
        {
          "internalType": "address",
          "name": "",
          "type": "address"
        }
      ],
      "name": "addressmp",
      "outputs": [
        {
          "internalType": "uint256",
          "name": "",
          "type": "uint256"
        }
      ],
      "stateMutability": "view",
      "type": "function"
    },
    {
      "inputs": [],
      "name": "builder_cnt",
      "outputs": [
        {
          "internalType": "uint256",
          "name": "",
          "type": "uint256"
        }
      ],
      "stateMutability": "view",
      "type": "function"
    },
    {
      "inputs": [
        {
          "internalType": "uint256",
          "name": "",
          "type": "uint256"
        }
      ],
      "name": "buildermp",
      "outputs": [
        {
          "internalType": "string",
          "name": "name",
          "type": "string"
        },
        {
          "internalType": "string",
          "name": "gstno",
          "type": "string"
        },
        {
          "internalType": "string",
          "name": "brochure_url",
          "type": "string"
        }
      ],
      "stateMutability": "view",
      "type": "function"
    },
    {
      "inputs": [
        {
          "components": [
            {
              "internalType": "string",
              "name": "start_date",
              "type": "string"
            },
            {
              "internalType": "string",
              "name": "end_date",
              "type": "string"
            },
            {
              "internalType": "uint256",
              "name": "valuation",
              "type": "uint256"
            },
            {
              "internalType": "string",
              "name": "prospectus_url",
              "type": "string"
            },
            {
              "internalType": "string[]",
              "name": "lat_log",
              "type": "string[]"
            },
            {
              "internalType": "address",
              "name": "corporation",
              "type": "address"
            }
          ],
          "internalType": "struct eStateProject.ProjectDetail",
          "name": "pd",
          "type": "tuple"
        }
      ],
      "name": "createProject",
      "outputs": [],
      "stateMutability": "nonpayable",
      "type": "function"
    },
    {
      "inputs": [
        {
          "internalType": "address",
          "name": "_address",
          "type": "address"
        }
      ],
      "name": "getAllProjects",
      "outputs": [
        {
          "internalType": "address[]",
          "name": "",
          "type": "address[]"
        }
      ],
      "stateMutability": "view",
      "type": "function"
    }
  ],
  "bytecode": "0x6080604052600160005534801561001557600080fd5b5060405161260e38038061260e83398101604081905261003491610059565b600380546001600160a01b0319166001600160a01b0392909216919091179055610089565b60006020828403121561006b57600080fd5b81516001600160a01b038116811461008257600080fd5b9392505050565b612576806100986000396000f3fe60806040523480156200001157600080fd5b50600436106200007b5760003560e01c8063a0ec67f71162000056578063a0ec67f714620000d9578063a1556b8214620000ff578063db1e476f146200011657600080fd5b8063188315af1462000080578063520b48841462000099578063728307d014620000cf575b600080fd5b620000976200009136600462000752565b6200013e565b005b620000bc620000aa36600462000859565b60026020526000908152604090205481565b6040519081526020015b60405180910390f35b620000bc60005481565b620000f0620000ea36600462000859565b62000256565b604051620000c691906200087e565b6200009762000110366004620008cd565b620002db565b6200012d620001273660046200095f565b620003bd565b604051620000c693929190620009c1565b336000908152600260205260408120549003620001a25760405162461bcd60e51b815260206004820152601160248201527f6275696c646572206e6f7420657869737400000000000000000000000000000060448201526064015b60405180910390fd5b6003546040516000916001600160a01b03169033908490620001c4906200058f565b620001d29392919062000a0a565b604051809103906000f080158015620001ef573d6000803e3d6000fd5b50336000908152600260209081526040808320548352600180835290832060030180549182018155835291200180547fffffffffffffffffffffffff0000000000000000000000000000000000000000166001600160a01b03929092169190911790555050565b6001600160a01b03811660009081526002602090815260408083205483526001825291829020600301805483518184028101840190945280845260609392830182828015620002cf57602002820191906000526020600020905b81546001600160a01b03168152600190910190602001808311620002b0575b50505050509050919050565b33600090815260026020526040902054156200033a5760405162461bcd60e51b815260206004820152601560248201527f6275696c64657220616c72656164792065786973740000000000000000000000604482015260640162000199565b6000805460019082908180620003508362000b27565b909155508152602081019190915260400160002090508062000373858262000bd2565b506001810162000384848262000bd2565b506002810162000395838262000bd2565b506001600054620003a7919062000c9f565b3360009081526002602052604090205550505050565b600160205260009081526040902080548190620003da9062000b43565b80601f0160208091040260200160405190810160405280929190818152602001828054620004089062000b43565b8015620004595780601f106200042d5761010080835404028352916020019162000459565b820191906000526020600020905b8154815290600101906020018083116200043b57829003601f168201915b505050505090806001018054620004709062000b43565b80601f01602080910402602001604051908101604052809291908181526020018280546200049e9062000b43565b8015620004ef5780601f10620004c357610100808354040283529160200191620004ef565b820191906000526020600020905b815481529060010190602001808311620004d157829003601f168201915b505050505090806002018054620005069062000b43565b80601f0160208091040260200160405190810160405280929190818152602001828054620005349062000b43565b8015620005855780601f10620005595761010080835404028352916020019162000585565b820191906000526020600020905b8154815290600101906020018083116200056757829003601f168201915b5050505050905083565b6118858062000cbc83390190565b634e487b7160e01b600052604160045260246000fd5b60405160c0810167ffffffffffffffff81118282101715620005d957620005d96200059d565b60405290565b604051601f8201601f1916810167ffffffffffffffff811182821017156200060b576200060b6200059d565b604052919050565b600082601f8301126200062557600080fd5b813567ffffffffffffffff8111156200064257620006426200059d565b62000657601f8201601f1916602001620005df565b8181528460208386010111156200066d57600080fd5b816020850160208301376000918101602001919091529392505050565b600082601f8301126200069c57600080fd5b8135602067ffffffffffffffff80831115620006bc57620006bc6200059d565b8260051b620006cd838201620005df565b9384528581018301938381019088861115620006e857600080fd5b84880192505b858310156200072957823584811115620007085760008081fd5b620007188a87838c010162000613565b8352509184019190840190620006ee565b98975050505050505050565b80356001600160a01b03811681146200074d57600080fd5b919050565b6000602082840312156200076557600080fd5b813567ffffffffffffffff808211156200077e57600080fd5b9083019060c082860312156200079357600080fd5b6200079d620005b3565b823582811115620007ad57600080fd5b620007bb8782860162000613565b825250602083013582811115620007d157600080fd5b620007df8782860162000613565b602083015250604083013560408201526060830135828111156200080257600080fd5b620008108782860162000613565b6060830152506080830135828111156200082957600080fd5b62000837878286016200068a565b6080830152506200084b60a0840162000735565b60a082015295945050505050565b6000602082840312156200086c57600080fd5b620008778262000735565b9392505050565b6020808252825182820181905260009190848201906040850190845b81811015620008c15783516001600160a01b0316835292840192918401916001016200089a565b50909695505050505050565b600080600060608486031215620008e357600080fd5b833567ffffffffffffffff80821115620008fc57600080fd5b6200090a8783880162000613565b945060208601359150808211156200092157600080fd5b6200092f8783880162000613565b935060408601359150808211156200094657600080fd5b50620009558682870162000613565b9150509250925092565b6000602082840312156200097257600080fd5b5035919050565b6000815180845260005b81811015620009a15760208185018101518683018201520162000983565b506000602082860101526020601f19601f83011685010191505092915050565b606081526000620009d6606083018662000979565b8281036020840152620009ea818662000979565b9050828103604084015262000a00818562000979565b9695505050505050565b60006001600160a01b038086168352602081861681850152606060408501528451915060c0606085015262000a4461012085018362000979565b915080850151605f198086850301608087015262000a63848362000979565b9350604087015160a087015260608701519150808685030160c087015262000a8c848362000979565b608088015187820390920160e08801528151808252909450908301915082840190600581901b8501840160005b8281101562000aeb57601f1987830301845262000ad882865162000979565b9486019493860193915060010162000ab9565b5060a08901516001600160a01b0381166101008a015295509a9950505050505050505050565b634e487b7160e01b600052601160045260246000fd5b60006001820162000b3c5762000b3c62000b11565b5060010190565b600181811c9082168062000b5857607f821691505b60208210810362000b7957634e487b7160e01b600052602260045260246000fd5b50919050565b601f82111562000bcd57600081815260208120601f850160051c8101602086101562000ba85750805b601f850160051c820191505b8181101562000bc95782815560010162000bb4565b5050505b505050565b815167ffffffffffffffff81111562000bef5762000bef6200059d565b62000c078162000c00845462000b43565b8462000b7f565b602080601f83116001811462000c3f576000841562000c265750858301515b600019600386901b1c1916600185901b17855562000bc9565b600085815260208120601f198616915b8281101562000c705788860151825594840194600190910190840162000c4f565b508582101562000c8f5787850151600019600388901b60f8161c191681555b5050505050600190811b01905550565b8181038181111562000cb55762000cb562000b11565b9291505056fe6080604052600180556001600d553480156200001a57600080fd5b5060405162001885380380620018858339810160408190526200003d91620004ec565b336001600160a01b0316836001600160a01b03166383373b366040518163ffffffff1660e01b8152600401602060405180830381865afa15801562000086573d6000803e3d6000fd5b505050506040513d601f19601f82011682018060405250810190620000ac91906200061a565b6001600160a01b031614620000f85760405162461bcd60e51b815260206004820152600e60248201526d1b9bdd08185d5d1a1bdc9a5e995960921b604482015260640160405180910390fd5b816000806101000a8154816001600160a01b0302191690836001600160a01b03160217905550826001600160a01b031663740b1a7b6040518163ffffffff1660e01b8152600401602060405180830381865afa1580156200015d573d6000803e3d6000fd5b505050506040513d601f19601f820116820180604052508101906200018391906200061a565b600680546001600160a01b03929092166001600160a01b0319928316811790915560058054909216179055805181906007908190620001c39082620006ce565b5060208201516001820190620001da9082620006ce565b506040820151600282015560608201516003820190620001fb9082620006ce565b5060808201518051620002199160048401916020909101906200024d565b5060a09190910151600590910180546001600160a01b0319166001600160a01b03909216919091179055506200079a915050565b82805482825590600052602060002090810192821562000298579160200282015b82811115620002985782518290620002879082620006ce565b50916020019190600101906200026e565b50620002a6929150620002aa565b5090565b80821115620002a6576000620002c18282620002cb565b50600101620002aa565b508054620002d9906200063f565b6000825580601f10620002ea575050565b601f0160209004906000526020600020908101906200030a91906200030d565b50565b5b80821115620002a657600081556001016200030e565b80516001600160a01b03811681146200033c57600080fd5b919050565b634e487b7160e01b600052604160045260246000fd5b60405160c081016001600160401b03811182821017156200037c576200037c62000341565b60405290565b604051601f8201601f191681016001600160401b0381118282101715620003ad57620003ad62000341565b604052919050565b600082601f830112620003c757600080fd5b81516001600160401b03811115620003e357620003e362000341565b6020620003f9601f8301601f1916820162000382565b82815285828487010111156200040e57600080fd5b60005b838110156200042e57858101830151828201840152820162000411565b506000928101909101919091529392505050565b600082601f8301126200045457600080fd5b815160206001600160401b038083111562000473576200047362000341565b8260051b6200048483820162000382565b93845285810183019383810190888611156200049f57600080fd5b84880192505b85831015620004e057825184811115620004bf5760008081fd5b620004cf8a87838c0101620003b5565b8352509184019190840190620004a5565b98975050505050505050565b6000806000606084860312156200050257600080fd5b6200050d8462000324565b92506200051d6020850162000324565b60408501519092506001600160401b03808211156200053b57600080fd5b9085019060c082880312156200055057600080fd5b6200055a62000357565b8251828111156200056a57600080fd5b6200057889828601620003b5565b8252506020830151828111156200058e57600080fd5b6200059c89828601620003b5565b60208301525060408301516040820152606083015182811115620005bf57600080fd5b620005cd89828601620003b5565b606083015250608083015182811115620005e657600080fd5b620005f48982860162000442565b6080830152506200060860a0840162000324565b60a08201528093505050509250925092565b6000602082840312156200062d57600080fd5b620006388262000324565b9392505050565b600181811c908216806200065457607f821691505b6020821081036200067557634e487b7160e01b600052602260045260246000fd5b50919050565b601f821115620006c957600081815260208120601f850160051c81016020861015620006a45750805b601f850160051c820191505b81811015620006c557828155600101620006b0565b5050505b505050565b81516001600160401b03811115620006ea57620006ea62000341565b6200070281620006fb84546200063f565b846200067b565b602080601f8311600181146200073a5760008415620007215750858301515b600019600386901b1c1916600185901b178555620006c5565b600085815260208120601f198616915b828110156200076b578886015182559484019460019091019084016200074a565b50858210156200078a5787850151600019600388901b60f8161c191681555b5050505050600190811b01905550565b6110db80620007aa6000396000f3fe608060405234801561001057600080fd5b50600436106100d45760003560e01c80639c094a5411610081578063d7e84fbf1161005b578063d7e84fbf146101dc578063d9e8843f14610207578063fb51adfa1461021a57600080fd5b80639c094a5414610155578063a4f228851461016a578063ad448e271461018a57600080fd5b80633506ab8c116100b25780633506ab8c146101235780634946942114610144578063807e0b111461014c57600080fd5b80631731cc05146100d95780632037fcbf146100fb5780632afcf48014610110575b600080fd5b6100e161023a565b6040516100f2959493929190610e6b565b60405180910390f35b61010e610109366004610ec6565b6103fd565b005b61010e61011e366004610ec6565b61067c565b610136610131366004610efb565b610983565b6040519081526020016100f2565b61010e6109ad565b61013660015481565b61015d610b3b565b6040516100f29190610f25565b610136610178366004610f7d565b60036020526000908152604090205481565b6101bd610198366004610ec6565b600260205260009081526040902080546001909101546001600160a01b039091169082565b604080516001600160a01b0390931683526020830191909152016100f2565b6000546101ef906001600160a01b031681565b6040516001600160a01b0390911681526020016100f2565b61010e610215366004610ec6565b610c2d565b610136610228366004610ec6565b600e6020526000908152604090205481565b60078054819061024990610f9f565b80601f016020809104026020016040519081016040528092919081815260200182805461027590610f9f565b80156102c25780601f10610297576101008083540402835291602001916102c2565b820191906000526020600020905b8154815290600101906020018083116102a557829003601f168201915b5050505050908060010180546102d790610f9f565b80601f016020809104026020016040519081016040528092919081815260200182805461030390610f9f565b80156103505780601f1061032557610100808354040283529160200191610350565b820191906000526020600020905b81548152906001019060200180831161033357829003601f168201915b50505050509080600201549080600301805461036b90610f9f565b80601f016020809104026020016040519081016040528092919081815260200182805461039790610f9f565b80156103e45780601f106103b9576101008083540402835291602001916103e4565b820191906000526020600020905b8154815290600101906020018083116103c757829003601f168201915b505050600590930154919250506001600160a01b031685565b33600090815260036020908152604080832054835260029091529020600101548111156104715760405162461bcd60e51b815260206004820152601560248201527f66756e64656420616d6f756e7420746f6f206c6f77000000000000000000000060448201526064015b60405180910390fd5b600d546000908152600e602052604081208054839290610492908490610fe9565b9091555050600d546000908152600460209081526040808320338452909152812080548392906104c3908490610fe9565b909155505033600090815260036020908152604080832054835260029091529020600101548190036105ce5760026000600180546105019190610fe9565b815260208082019290925260409081016000908120338252600384528282205482526002938490529181208254815473ffffffffffffffffffffffffffffffffffffffff19166001600160a01b0391909116178155600192830154908301558154909161056d91610fe9565b815260208082019290925260409081016000908120805473ffffffffffffffffffffffffffffffffffffffff191681556001908101829055338252600390935290812081905581548291906105c3908390610fe9565b909155506106039050565b3360009081526003602090815260408083205483526002909152812060010180548392906105fd908490610fe9565b90915550505b60065460405163a9059cbb60e01b8152306004820152602481018390526001600160a01b039091169063a9059cbb906044016020604051808303816000875af1158015610654573d6000803e3d6000fd5b505050506040513d601f19601f820116820180604052508101906106789190610ffc565b5050565b600554604051636eb1769f60e11b8152336004820152306024820152829182916001600160a01b039091169063dd62ed3e90604401602060405180830381865afa1580156106ce573d6000803e3d6000fd5b505050506040513d601f19601f820116820180604052508101906106f2919061101e565b10156107285760405162461bcd60e51b815260206004820152600560248201526422b93937b960d91b6044820152606401610468565b336000908152600360205260408120549003610878576001805460009160029183918261075483611037565b9091555081526020810191909152604001600020805473ffffffffffffffffffffffffffffffffffffffff1916331781556001805491925061079591610fe9565b33600081815260036020526040908190209290925560065491516323b872dd60e01b81526004810191909152306024820152604481018590526001600160a01b03909116906323b872dd906064016020604051808303816000875af1158015610802573d6000803e3d6000fd5b505050506040513d601f19601f820116820180604052508101906108269190610ffc565b5060018101839055600d546000908152600e60205260408120805485929061084f908490611050565b9091555050600d5460009081526004602090815260408083203384529091529020839055505050565b6006546040516323b872dd60e01b8152336004820152306024820152604481018490526001600160a01b03909116906323b872dd906064016020604051808303816000875af11580156108cf573d6000803e3d6000fd5b505050506040513d601f19601f820116820180604052508101906108f39190610ffc565b50336000908152600360209081526040808320548352600290915281206001018054849290610923908490611050565b9091555050600d546000908152600e602052604081208054849290610949908490611050565b9091555050600d5460009081526004602090815260408083203384529091528120805484929061097a908490611050565b90915550505050565b60008181526004602090815260408083206001600160a01b03861684529091529020545b92915050565b600d54336000908152600f602052604090205410610a0d5760405162461bcd60e51b815260206004820152601460248201527f796f7520616c726561647920636c616d696e65640000000000000000000000006044820152606401610468565b336000908152600f60205260408120548190610a2a906001611050565b90505b600d54811015610a94576000818152600e6020908152604080832054600483528184203385529092528220548291610a659190610df1565b9150915081610a7357600080fd5b610a7d8185611050565b935050508080610a8c90611037565b915050610a2d565b506001600d54610aa49190610fe9565b336000818152600f60205260409081902092909255600654915163a9059cbb60e01b81526004810191909152602481018390526001600160a01b039091169063a9059cbb906044016020604051808303816000875af1158015610b0b573d6000803e3d6000fd5b505050506040513d601f19601f82011682018060405250810190610b2f9190610ffc565b610b3857600080fd5b50565b6060600060018054610b4d9190610fe9565b67ffffffffffffffff811115610b6557610b65611063565b604051908082528060200260200182016040528015610baa57816020015b6040805180820190915260008082526020820152815260200190600190039081610b835790505b50905060015b6001548111610c2757600081815260026020908152604091829020825180840190935280546001600160a01b03168352600190810154918301919091528390610bf99084610fe9565b81518110610c0957610c09611079565b60200260200101819052508080610c1f90611037565b915050610bb0565b50919050565b600554604051636eb1769f60e11b8152336004820152306024820152829182916001600160a01b039091169063dd62ed3e90604401602060405180830381865afa158015610c7f573d6000803e3d6000fd5b505050506040513d601f19601f82011682018060405250810190610ca3919061101e565b1015610cd95760405162461bcd60e51b815260206004820152600560248201526422b93937b960d91b6044820152606401610468565b600c546001600160a01b03163314610d595760405162461bcd60e51b815260206004820152602660248201527f73686f756c642062652070616964206279206d616e6167696e6720636f72706f60448201527f726174696f6e00000000000000000000000000000000000000000000000000006064820152608401610468565b6001600d6000828254610d6c9190611050565b90915550506006546040516323b872dd60e01b8152336004820152306024820152604481018490526001600160a01b03909116906323b872dd906064016020604051808303816000875af1158015610dc8573d6000803e3d6000fd5b505050506040513d601f19601f82011682018060405250810190610dec9190610ffc565b505050565b60008082600003610e0757506000905080610e1e565b6001838581610e1857610e1861108f565b04915091505b9250929050565b6000815180845260005b81811015610e4b57602081850181015186830182015201610e2f565b506000602082860101526020601f19601f83011685010191505092915050565b60a081526000610e7e60a0830188610e25565b8281036020840152610e908188610e25565b90508560408401528281036060840152610eaa8186610e25565b9150506001600160a01b03831660808301529695505050505050565b600060208284031215610ed857600080fd5b5035919050565b80356001600160a01b0381168114610ef657600080fd5b919050565b60008060408385031215610f0e57600080fd5b610f1783610edf565b946020939093013593505050565b602080825282518282018190526000919060409081850190868401855b82811015610f7057815180516001600160a01b03168552860151868501529284019290850190600101610f42565b5091979650505050505050565b600060208284031215610f8f57600080fd5b610f9882610edf565b9392505050565b600181811c90821680610fb357607f821691505b602082108103610c2757634e487b7160e01b600052602260045260246000fd5b634e487b7160e01b600052601160045260246000fd5b818103818111156109a7576109a7610fd3565b60006020828403121561100e57600080fd5b81518015158114610f9857600080fd5b60006020828403121561103057600080fd5b5051919050565b60006001820161104957611049610fd3565b5060010190565b808201808211156109a7576109a7610fd3565b634e487b7160e01b600052604160045260246000fd5b634e487b7160e01b600052603260045260246000fd5b634e487b7160e01b600052601260045260246000fdfea26469706673582212200c5ddde39f2cc943da557198eab579405f82bf50fc82ee81ccdc7f62f3d70a8464736f6c63430008110033a2646970667358221220c7c689cc677279681e2ff7cb4514488f7eebbdd78529c41eb7196147208d305a64736f6c63430008110033",
  "linkReferences": {},
  "deployedLinkReferences": {}
}