{
  "_format": "hh-sol-artifact-1",
  "contractName": "EREITGoverance",
  "sourceName": "contracts/ereitGovernance.sol",
  "abi": [
    {
      "inputs": [
        {
          "internalType": "address",
          "name": "_addressPool",
          "type": "address"
        }
      ],
      "stateMutability": "nonpayable",
      "type": "constructor"
    },
    {
      "inputs": [
        {
          "internalType": "address",
          "name": "to",
          "type": "address"
        }
      ],
      "name": "mint",
      "outputs": [],
      "stateMutability": "nonpayable",
      "type": "function"
    },
    {
      "inputs": [
        {
          "internalType": "address",
          "name": "",
          "type": "address"
        }
      ],
      "name": "redeemed",
      "outputs": [
        {
          "internalType": "bool",
          "name": "",
          "type": "bool"
        }
      ],
      "stateMutability": "view",
      "type": "function"
    }
  ],
  "bytecode": "0x608060405234801561001057600080fd5b5060405161038638038061038683398101604081905261002f91610054565b600080546001600160a01b0319166001600160a01b0392909216919091179055610084565b60006020828403121561006657600080fd5b81516001600160a01b038116811461007d57600080fd5b9392505050565b6102f3806100936000396000f3fe608060405234801561001057600080fd5b50600436106100365760003560e01c80636a6278421461003b5780639f4568ef14610050575b600080fd5b61004e61004936600461027c565b610087565b005b61007361005e36600461027c565b60016020526000908152604090205460ff1681565b604051901515815260200160405180910390f35b73ffffffffffffffffffffffffffffffffffffffff811660009081526001602052604090205460ff161561011b576040517f08c379a000000000000000000000000000000000000000000000000000000000815260206004820152601060248201527f616c72656164792072656465656d656400000000000000000000000000000000604482015260640160405180910390fd5b73ffffffffffffffffffffffffffffffffffffffff8082166000908152600160208181526040808420805460ff1916909317909255915481517f740b1a7b000000000000000000000000000000000000000000000000000000008152915193169263740b1a7b926004808401939192918290030181865afa1580156101a4573d6000803e3d6000fd5b505050506040513d601f19601f820116820180604052508101906101c891906102a0565b6040517f40c10f1900000000000000000000000000000000000000000000000000000000815273ffffffffffffffffffffffffffffffffffffffff8381166004830152620186a0602483015291909116906340c10f1990604401600060405180830381600087803b15801561023c57600080fd5b505af1158015610250573d6000803e3d6000fd5b5050505050565b73ffffffffffffffffffffffffffffffffffffffff8116811461027957600080fd5b50565b60006020828403121561028e57600080fd5b813561029981610257565b9392505050565b6000602082840312156102b257600080fd5b81516102998161025756fea26469706673582212204bad819f3b8e82fbe3fee9ab2ee5129c2134b99baf61937f7dbe53e25fe0c5b864736f6c63430008110033",
  "linkReferences": {},
  "deployedLinkReferences": {}
}